{
  "contractName": "Math",
  "abi": [
    {
      "constant": true,
      "inputs": [],
      "name": "LN2",
      "outputs": [
        {
          "name": "",
          "type": "uint256"
        }
      ],
      "payable": false,
      "stateMutability": "view",
      "type": "function"
    },
    {
      "constant": true,
      "inputs": [],
      "name": "LOG2_E",
      "outputs": [
        {
          "name": "",
          "type": "uint256"
        }
      ],
      "payable": false,
      "stateMutability": "view",
      "type": "function"
    },
    {
      "constant": true,
      "inputs": [],
      "name": "ONE",
      "outputs": [
        {
          "name": "",
          "type": "uint256"
        }
      ],
      "payable": false,
      "stateMutability": "view",
      "type": "function"
    },
    {
      "constant": true,
      "inputs": [
        {
          "name": "x",
          "type": "int256"
        }
      ],
      "name": "exp",
      "outputs": [
        {
          "name": "",
          "type": "uint256"
        }
      ],
      "payable": false,
      "stateMutability": "pure",
      "type": "function"
    },
    {
      "constant": true,
      "inputs": [
        {
          "name": "x",
          "type": "uint256"
        }
      ],
      "name": "ln",
      "outputs": [
        {
          "name": "",
          "type": "int256"
        }
      ],
      "payable": false,
      "stateMutability": "pure",
      "type": "function"
    },
    {
      "constant": true,
      "inputs": [
        {
          "name": "x",
          "type": "uint256"
        }
      ],
      "name": "floorLog2",
      "outputs": [
        {
          "name": "lo",
          "type": "int256"
        }
      ],
      "payable": false,
      "stateMutability": "pure",
      "type": "function"
    },
    {
      "constant": true,
      "inputs": [
        {
          "name": "nums",
          "type": "int256[]"
        }
      ],
      "name": "max",
      "outputs": [
        {
          "name": "maxNum",
          "type": "int256"
        }
      ],
      "payable": false,
      "stateMutability": "pure",
      "type": "function"
    }
  ],
  "bytecode": "0x610c4a610030600b82828239805160001a6073146000811461002057610022565bfe5b5030600052607381538281f300730000000000000000000000000000000000000000301460806040526004361061009a576000357c0100000000000000000000000000000000000000000000000000000000900463ffffffff168063027806771461009f57806324902e24146100bd57806324d4e90a146100db57806345b8bafc1461010f578063c2ee3a0814610143578063ccc1381414610161578063e46751e3146101ce575b600080fd5b6100a7610202565b6040518082815260200191505060405180910390f35b6100c561020e565b6040518082815260200191505060405180910390f35b6100f96004803603810190808035906020019092919050505061021b565b6040518082815260200191505060405180910390f35b61012d600480360381019080803590602001909291905050506105bf565b6040518082815260200191505060405180910390f35b61014b610676565b6040518082815260200191505060405180910390f35b6101b860048036038101908080359060200190820180359060200190808060200260200160405190810160405280939291908181526020018383602002808284378201915050505050509192919290505050610683565b6040518082815260200191505060405180910390f35b6101ec60048036038101908080359060200190929190505050610714565b6040518082815260200191505060405180910390f35b67b17217f7d1cf79ac81565b680171547652b82fe17781565b60008060008060008060008711151561023357600080fd5b61023c876105bf565b945060008512156102585784600003879060020a029350610263565b84879060020a900493505b680100000000000000008401680100000000000000008086030281151561028657fe5b0592508291506801000000000000000083680100000000000000008586028115156102ad57fe5b05028115156102b857fe5b0590506003818115156102c757fe5b05820191506801000000000000000083680100000000000000008584028115156102ed57fe5b05028115156102f857fe5b05905060058181151561030757fe5b058201915068010000000000000000836801000000000000000085840281151561032d57fe5b050281151561033857fe5b05905060078181151561034757fe5b058201915068010000000000000000836801000000000000000085840281151561036d57fe5b050281151561037857fe5b05905060098181151561038757fe5b05820191506801000000000000000083680100000000000000008584028115156103ad57fe5b05028115156103b857fe5b059050600b818115156103c757fe5b05820191506801000000000000000083680100000000000000008584028115156103ed57fe5b05028115156103f857fe5b059050600d8181151561040757fe5b058201915068010000000000000000836801000000000000000085840281151561042d57fe5b050281151561043857fe5b059050600f8181151561044757fe5b058201915068010000000000000000836801000000000000000085840281151561046d57fe5b050281151561047857fe5b05905060118181151561048757fe5b05820191506801000000000000000083680100000000000000008584028115156104ad57fe5b05028115156104b857fe5b0590506013818115156104c757fe5b05820191506801000000000000000083680100000000000000008584028115156104ed57fe5b05028115156104f857fe5b05905060158181151561050757fe5b058201915068010000000000000000836801000000000000000085840281151561052d57fe5b050281151561053857fe5b05905060178181151561054757fe5b058201915068010000000000000000836801000000000000000085840281151561056d57fe5b050281151561057857fe5b05905060198181151561058757fe5b058201915081600202680171547652b82fe17768010000000000000000808802028115156105b157fe5b050195505050505050919050565b60008060007fffffffffffffffffffffffffffffffffffffffffffffffffffffffffffffffc0925060c1915060018383019060020a900590505b8160018401121561066f5760008112801561062557506801000000000000000081600003859060020a02105b8061064c57506000811215801561064b57506801000000000000000081859060020a9004105b5b156106595780915061065d565b8092505b60018383019060020a900590506105f9565b5050919050565b6801000000000000000081565b6000806000835111151561069657600080fd5b7f80000000000000000000000000000000000000000000000000000000000000009150600090505b825181101561070e578183828151811015156106d657fe5b9060200190602002015113156107015782818151811015156106f457fe5b9060200190602002015191505b80806001019150506106be565b50919050565b600080600080600068851591f9dd5b9b40d7861315151561073457600080fd5b7fffffffffffffffffffffffffffffffffffffffffffffffd3a37a020b8c21950d8612156107655760009450610c15565b67b17217f7d1cf79ac68010000000000000000870281151561078357fe5b0595506000861215156107c35768010000000000000000868115156107a457fe5b05935068010000000000000000868115156107bb57fe5b079250610803565b600168010000000000000000878115156107d957fe5b0503935068010000000000000000866000038115156107f457fe5b07680100000000000000000392505b829150680100000000000000009050680100000000000000008267b17217f7d1cf79ab0281151561083057fe5b04810190506801000000000000000083830281151561084b57fe5b0491506801000000000000000082673d7f7bff058b1d500281151561086c57fe5b04810190506801000000000000000083830281151561088757fe5b0491506801000000000000000082670e35846b82505fc5028115156108a857fe5b0481019050680100000000000000008383028115156108c357fe5b0491506801000000000000000082670276556df749cee5028115156108e457fe5b0481019050680100000000000000008383028115156108ff57fe5b0491506801000000000000000082665761ff9e299cc40281151561091f57fe5b04810190506801000000000000000083830281151561093a57fe5b0491506801000000000000000082660a184897c363c30281151561095a57fe5b04810190506801000000000000000083830281151561097557fe5b049150680100000000000000008265ffe5fe2c45860281151561099457fe5b0481019050680100000000000000008383028115156109af57fe5b049150680100000000000000008265162c0223a5c8028115156109ce57fe5b0481019050680100000000000000008383028115156109e957fe5b04915068010000000000000000826501b5253d395e02811515610a0857fe5b048101905068010000000000000000838302811515610a2357fe5b0491506801000000000000000082641e4cf5158b02811515610a4157fe5b048101905068010000000000000000838302811515610a5c57fe5b04915068010000000000000000826401e8cac73502811515610a7a57fe5b048101905068010000000000000000838302811515610a9557fe5b0491506801000000000000000082631c3bd65002811515610ab257fe5b048101905068010000000000000000838302811515610acd57fe5b0491506801000000000000000082630181619302811515610aea57fe5b048101905068010000000000000000838302811515610b0557fe5b04915068010000000000000000826213149602811515610b2157fe5b048101905068010000000000000000838302811515610b3c57fe5b049150680100000000000000008261e1b702811515610b5757fe5b048101905068010000000000000000838302811515610b7257fe5b04915068010000000000000000826109c702811515610b8d57fe5b0481019050600084121515610bfc5760008461010003826000821215610baf57fe5b9060020a90041115610be3577fffffffffffffffffffffffffffffffffffffffffffffffffffffffffffffffff9450610c15565b83816000821215610bf057fe5b9060020a029450610c15565b83600003816000821215610c0c57fe5b9060020a900494505b505050509190505600a165627a7a723058201d806c49fd31349b522525cfcd2c0052a2cafb38d868ce5db7ac518d60986b9e0029",
  "source": "pragma solidity ^0.4.21;\n\n\n/// @title Math library - Allows calculation of logarithmic and exponential functions\n/// @author Alan Lu - <alan.lu@gnosis.pm>\n/// @author Stefan George - <stefan@gnosis.pm>\nlibrary Math {\n\n    /*\n     *  Constants\n     */\n    // This is equal to 1 in our calculations\n    uint public constant ONE =  0x10000000000000000;\n    uint public constant LN2 = 0xb17217f7d1cf79ac;\n    uint public constant LOG2_E = 0x171547652b82fe177;\n\n    /*\n     *  Public functions\n     */\n    /// @dev Returns natural exponential function value of given x\n    /// @param x x\n    /// @return e**x\n    function exp(int x)\n        public\n        pure\n        returns (uint)\n    {\n        // revert if x is > MAX_POWER, where\n        // MAX_POWER = int(mp.floor(mp.log(mpf(2**256 - 1) / ONE) * ONE))\n        require(x <= 2454971259878909886679);\n        // return 0 if exp(x) is tiny, using\n        // MIN_POWER = int(mp.floor(mp.log(mpf(1) / ONE) * ONE))\n        if (x < -818323753292969962227)\n            return 0;\n        // Transform so that e^x -> 2^x\n        x = x * int(ONE) / int(LN2);\n        // 2^x = 2^whole(x) * 2^frac(x)\n        //       ^^^^^^^^^^ is a bit shift\n        // so Taylor expand on z = frac(x)\n        int shift;\n        uint z;\n        if (x >= 0) {\n            shift = x / int(ONE);\n            z = uint(x % int(ONE));\n        }\n        else {\n            shift = x / int(ONE) - 1;\n            z = ONE - uint(-x % int(ONE));\n        }\n        // 2^x = 1 + (ln 2) x + (ln 2)^2/2! x^2 + ...\n        //\n        // Can generate the z coefficients using mpmath and the following lines\n        // >>> from mpmath import mp\n        // >>> mp.dps = 100\n        // >>> ONE =  0x10000000000000000\n        // >>> print('\\n'.join(hex(int(mp.log(2)**i / mp.factorial(i) * ONE)) for i in range(1, 7)))\n        // 0xb17217f7d1cf79ab\n        // 0x3d7f7bff058b1d50\n        // 0xe35846b82505fc5\n        // 0x276556df749cee5\n        // 0x5761ff9e299cc4\n        // 0xa184897c363c3\n        uint zpow = z;\n        uint result = ONE;\n        result += 0xb17217f7d1cf79ab * zpow / ONE;\n        zpow = zpow * z / ONE;\n        result += 0x3d7f7bff058b1d50 * zpow / ONE;\n        zpow = zpow * z / ONE;\n        result += 0xe35846b82505fc5 * zpow / ONE;\n        zpow = zpow * z / ONE;\n        result += 0x276556df749cee5 * zpow / ONE;\n        zpow = zpow * z / ONE;\n        result += 0x5761ff9e299cc4 * zpow / ONE;\n        zpow = zpow * z / ONE;\n        result += 0xa184897c363c3 * zpow / ONE;\n        zpow = zpow * z / ONE;\n        result += 0xffe5fe2c4586 * zpow / ONE;\n        zpow = zpow * z / ONE;\n        result += 0x162c0223a5c8 * zpow / ONE;\n        zpow = zpow * z / ONE;\n        result += 0x1b5253d395e * zpow / ONE;\n        zpow = zpow * z / ONE;\n        result += 0x1e4cf5158b * zpow / ONE;\n        zpow = zpow * z / ONE;\n        result += 0x1e8cac735 * zpow / ONE;\n        zpow = zpow * z / ONE;\n        result += 0x1c3bd650 * zpow / ONE;\n        zpow = zpow * z / ONE;\n        result += 0x1816193 * zpow / ONE;\n        zpow = zpow * z / ONE;\n        result += 0x131496 * zpow / ONE;\n        zpow = zpow * z / ONE;\n        result += 0xe1b7 * zpow / ONE;\n        zpow = zpow * z / ONE;\n        result += 0x9c7 * zpow / ONE;\n        if (shift >= 0) {\n            if (result >> (256-shift) > 0)\n                return (2**256-1);\n            return result << shift;\n        }\n        else\n            return result >> (-shift);\n    }\n\n    /// @dev Returns natural logarithm value of given x\n    /// @param x x\n    /// @return ln(x)\n    function ln(uint x)\n        public\n        pure\n        returns (int)\n    {\n        require(x > 0);\n        // binary search for floor(log2(x))\n        int ilog2 = floorLog2(x);\n        int z;\n        if (ilog2 < 0)\n            z = int(x << uint(-ilog2));\n        else\n            z = int(x >> uint(ilog2));\n        // z = x * 2^-⌊log₂x⌋\n        // so 1 <= z < 2\n        // and ln z = ln x - ⌊log₂x⌋/log₂e\n        // so just compute ln z using artanh series\n        // and calculate ln x from that\n        int term = (z - int(ONE)) * int(ONE) / (z + int(ONE));\n        int halflnz = term;\n        int termpow = term * term / int(ONE) * term / int(ONE);\n        halflnz += termpow / 3;\n        termpow = termpow * term / int(ONE) * term / int(ONE);\n        halflnz += termpow / 5;\n        termpow = termpow * term / int(ONE) * term / int(ONE);\n        halflnz += termpow / 7;\n        termpow = termpow * term / int(ONE) * term / int(ONE);\n        halflnz += termpow / 9;\n        termpow = termpow * term / int(ONE) * term / int(ONE);\n        halflnz += termpow / 11;\n        termpow = termpow * term / int(ONE) * term / int(ONE);\n        halflnz += termpow / 13;\n        termpow = termpow * term / int(ONE) * term / int(ONE);\n        halflnz += termpow / 15;\n        termpow = termpow * term / int(ONE) * term / int(ONE);\n        halflnz += termpow / 17;\n        termpow = termpow * term / int(ONE) * term / int(ONE);\n        halflnz += termpow / 19;\n        termpow = termpow * term / int(ONE) * term / int(ONE);\n        halflnz += termpow / 21;\n        termpow = termpow * term / int(ONE) * term / int(ONE);\n        halflnz += termpow / 23;\n        termpow = termpow * term / int(ONE) * term / int(ONE);\n        halflnz += termpow / 25;\n        return (ilog2 * int(ONE)) * int(ONE) / int(LOG2_E) + 2 * halflnz;\n    }\n\n    /// @dev Returns base 2 logarithm value of given x\n    /// @param x x\n    /// @return logarithmic value\n    function floorLog2(uint x)\n        public\n        pure\n        returns (int lo)\n    {\n        lo = -64;\n        int hi = 193;\n        // I use a shift here instead of / 2 because it floors instead of rounding towards 0\n        int mid = (hi + lo) >> 1;\n        while((lo + 1) < hi) {\n            if (mid < 0 && x << uint(-mid) < ONE || mid >= 0 && x >> uint(mid) < ONE)\n                hi = mid;\n            else\n                lo = mid;\n            mid = (hi + lo) >> 1;\n        }\n    }\n\n    /// @dev Returns maximum of an array\n    /// @param nums Numbers to look through\n    /// @return Maximum number\n    function max(int[] nums)\n        public\n        pure\n        returns (int maxNum)\n    {\n        require(nums.length > 0);\n        maxNum = -2**255;\n        for (uint i = 0; i < nums.length; i++)\n            if (nums[i] > maxNum)\n                maxNum = nums[i];\n    }\n\n    /// @dev Returns whether an add operation causes an overflow\n    /// @param a First addend\n    /// @param b Second addend\n    /// @return Did no overflow occur?\n    function safeToAdd(uint a, uint b)\n        internal\n        pure\n        returns (bool)\n    {\n        return a + b >= a;\n    }\n\n    /// @dev Returns whether a subtraction operation causes an underflow\n    /// @param a Minuend\n    /// @param b Subtrahend\n    /// @return Did no underflow occur?\n    function safeToSub(uint a, uint b)\n        internal\n        pure\n        returns (bool)\n    {\n        return a >= b;\n    }\n\n    /// @dev Returns whether a multiply operation causes an overflow\n    /// @param a First factor\n    /// @param b Second factor\n    /// @return Did no overflow occur?\n    function safeToMul(uint a, uint b)\n        internal\n        pure\n        returns (bool)\n    {\n        return b == 0 || a * b / b == a;\n    }\n\n    /// @dev Returns sum if no overflow occurred\n    /// @param a First addend\n    /// @param b Second addend\n    /// @return Sum\n    function add(uint a, uint b)\n        internal\n        pure\n        returns (uint)\n    {\n        require(safeToAdd(a, b));\n        return a + b;\n    }\n\n    /// @dev Returns difference if no overflow occurred\n    /// @param a Minuend\n    /// @param b Subtrahend\n    /// @return Difference\n    function sub(uint a, uint b)\n        internal\n        pure\n        returns (uint)\n    {\n        require(safeToSub(a, b));\n        return a - b;\n    }\n\n    /// @dev Returns product if no overflow occurred\n    /// @param a First factor\n    /// @param b Second factor\n    /// @return Product\n    function mul(uint a, uint b)\n        internal\n        pure\n        returns (uint)\n    {\n        require(safeToMul(a, b));\n        return a * b;\n    }\n\n    /// @dev Returns whether an add operation causes an overflow\n    /// @param a First addend\n    /// @param b Second addend\n    /// @return Did no overflow occur?\n    function safeToAdd(int a, int b)\n        internal\n        pure\n        returns (bool)\n    {\n        return (b >= 0 && a + b >= a) || (b < 0 && a + b < a);\n    }\n\n    /// @dev Returns whether a subtraction operation causes an underflow\n    /// @param a Minuend\n    /// @param b Subtrahend\n    /// @return Did no underflow occur?\n    function safeToSub(int a, int b)\n        internal\n        pure\n        returns (bool)\n    {\n        return (b >= 0 && a - b <= a) || (b < 0 && a - b > a);\n    }\n\n    /// @dev Returns whether a multiply operation causes an overflow\n    /// @param a First factor\n    /// @param b Second factor\n    /// @return Did no overflow occur?\n    function safeToMul(int a, int b)\n        internal\n        pure\n        returns (bool)\n    {\n        return (b == 0) || (a * b / b == a);\n    }\n\n    /// @dev Returns sum if no overflow occurred\n    /// @param a First addend\n    /// @param b Second addend\n    /// @return Sum\n    function add(int a, int b)\n        internal\n        pure\n        returns (int)\n    {\n        require(safeToAdd(a, b));\n        return a + b;\n    }\n\n    /// @dev Returns difference if no overflow occurred\n    /// @param a Minuend\n    /// @param b Subtrahend\n    /// @return Difference\n    function sub(int a, int b)\n        internal\n        pure\n        returns (int)\n    {\n        require(safeToSub(a, b));\n        return a - b;\n    }\n\n    /// @dev Returns product if no overflow occurred\n    /// @param a First factor\n    /// @param b Second factor\n    /// @return Product\n    function mul(int a, int b)\n        internal\n        pure\n        returns (int)\n    {\n        require(safeToMul(a, b));\n        return a * b;\n    }\n}\n",
  "sourcePath": "@gnosis.pm/util-contracts/contracts/Math.sol",
  "compiler": {
    "name": "solc",
    "version": "0.4.24+commit.e67f0147.Emscripten.clang"
  },
  "schemaVersion": "2.0.1",
  "updatedAt": "2018-07-12T15:44:44.147Z"
}